{
  "_format": "hh-sol-artifact-1",
  "contractName": "EnhancedBlockDocument",
  "sourceName": "contracts/Enhancedblockdocument.sol",
  "abi": [
    {
      "inputs": [],
      "stateMutability": "nonpayable",
      "type": "constructor"
    },
    {
      "anonymous": false,
      "inputs": [
        {
          "indexed": false,
          "internalType": "bytes32",
          "name": "DocTitle",
          "type": "bytes32"
        },
        {
          "indexed": false,
          "internalType": "uint64",
          "name": "Owner",
          "type": "uint64"
        },
        {
          "indexed": false,
          "internalType": "uint64",
          "name": "LastAccessDate",
          "type": "uint64"
        },
        {
          "indexed": false,
          "internalType": "bytes32",
          "name": "LastAccessedBy",
          "type": "bytes32"
        },
        {
          "indexed": false,
          "internalType": "enum EnhancedBlockDocument.Action",
          "name": "action",
          "type": "uint8"
        },
        {
          "indexed": false,
          "internalType": "bytes32",
          "name": "SharedUser",
          "type": "bytes32"
        },
        {
          "indexed": false,
          "internalType": "uint64",
          "name": "SharedEndDate",
          "type": "uint64"
        },
        {
          "indexed": false,
          "internalType": "bytes32",
          "name": "ipfsHash",
          "type": "bytes32"
        },
        {
          "indexed": false,
          "internalType": "uint64",
          "name": "TimeStamp",
          "type": "uint64"
        }
      ],
      "name": "DocumentAccessed",
      "type": "event"
    },
    {
      "anonymous": false,
      "inputs": [
        {
          "indexed": false,
          "internalType": "bytes32",
          "name": "DocTitle",
          "type": "bytes32"
        },
        {
          "indexed": false,
          "internalType": "uint64",
          "name": "Owner",
          "type": "uint64"
        },
        {
          "indexed": false,
          "internalType": "uint64",
          "name": "LastAccessDate",
          "type": "uint64"
        },
        {
          "indexed": false,
          "internalType": "bytes32",
          "name": "LastAccessedBy",
          "type": "bytes32"
        },
        {
          "indexed": false,
          "internalType": "enum EnhancedBlockDocument.Action",
          "name": "action",
          "type": "uint8"
        },
        {
          "indexed": false,
          "internalType": "bytes32",
          "name": "SharedUser",
          "type": "bytes32"
        },
        {
          "indexed": false,
          "internalType": "uint64",
          "name": "SharedEndDate",
          "type": "uint64"
        },
        {
          "indexed": false,
          "internalType": "bytes32",
          "name": "ipfsHash",
          "type": "bytes32"
        },
        {
          "indexed": false,
          "internalType": "uint64",
          "name": "TimeStamp",
          "type": "uint64"
        }
      ],
      "name": "DocumentCreated",
      "type": "event"
    },
    {
      "anonymous": false,
      "inputs": [
        {
          "indexed": false,
          "internalType": "bytes32",
          "name": "DocTitle",
          "type": "bytes32"
        },
        {
          "indexed": false,
          "internalType": "uint64",
          "name": "Owner",
          "type": "uint64"
        },
        {
          "indexed": false,
          "internalType": "uint64",
          "name": "LastAccessDate",
          "type": "uint64"
        },
        {
          "indexed": false,
          "internalType": "bytes32",
          "name": "LastAccessedBy",
          "type": "bytes32"
        },
        {
          "indexed": false,
          "internalType": "enum EnhancedBlockDocument.Action",
          "name": "action",
          "type": "uint8"
        },
        {
          "indexed": false,
          "internalType": "bytes32",
          "name": "SharedUser",
          "type": "bytes32"
        },
        {
          "indexed": false,
          "internalType": "uint64",
          "name": "SharedEndDate",
          "type": "uint64"
        },
        {
          "indexed": false,
          "internalType": "bytes32",
          "name": "ipfsHash",
          "type": "bytes32"
        },
        {
          "indexed": false,
          "internalType": "uint64",
          "name": "TimeStamp",
          "type": "uint64"
        }
      ],
      "name": "DocumentShared",
      "type": "event"
    },
    {
      "inputs": [
        {
          "internalType": "bytes32",
          "name": "_DocTitle",
          "type": "bytes32"
        },
        {
          "internalType": "uint64",
          "name": "_Owner",
          "type": "uint64"
        },
        {
          "internalType": "uint8",
          "name": "_action",
          "type": "uint8"
        },
        {
          "internalType": "uint64",
          "name": "_LastAccessDate",
          "type": "uint64"
        }
      ],
      "name": "accessDocument",
      "outputs": [],
      "stateMutability": "nonpayable",
      "type": "function"
    },
    {
      "inputs": [
        {
          "internalType": "bytes32",
          "name": "_DocTitle",
          "type": "bytes32"
        },
        {
          "internalType": "uint64",
          "name": "_Owner",
          "type": "uint64"
        },
        {
          "internalType": "uint64",
          "name": "_LastAccessDate",
          "type": "uint64"
        },
        {
          "internalType": "bytes32",
          "name": "_ipfsHash",
          "type": "bytes32"
        }
      ],
      "name": "createDocument",
      "outputs": [],
      "stateMutability": "nonpayable",
      "type": "function"
    },
    {
      "inputs": [
        {
          "internalType": "bytes32",
          "name": "",
          "type": "bytes32"
        }
      ],
      "name": "documentHistory",
      "outputs": [
        {
          "internalType": "bytes32",
          "name": "DocTitle",
          "type": "bytes32"
        },
        {
          "internalType": "uint64",
          "name": "Owner",
          "type": "uint64"
        },
        {
          "internalType": "uint64",
          "name": "LastAccessDate",
          "type": "uint64"
        },
        {
          "internalType": "bytes32",
          "name": "LastAccessedBy",
          "type": "bytes32"
        },
        {
          "internalType": "enum EnhancedBlockDocument.Action",
          "name": "action",
          "type": "uint8"
        },
        {
          "internalType": "bytes32",
          "name": "SharedUser",
          "type": "bytes32"
        },
        {
          "internalType": "uint64",
          "name": "SharedEndDate",
          "type": "uint64"
        },
        {
          "internalType": "bytes32",
          "name": "ipfsHash",
          "type": "bytes32"
        },
        {
          "internalType": "uint64",
          "name": "TimeStamp",
          "type": "uint64"
        },
        {
          "internalType": "uint64",
          "name": "timestamp",
          "type": "uint64"
        },
        {
          "internalType": "bytes32",
          "name": "previousHash",
          "type": "bytes32"
        }
      ],
      "stateMutability": "view",
      "type": "function"
    },
    {
      "inputs": [
        {
          "internalType": "bytes32",
          "name": "_DocTitle",
          "type": "bytes32"
        },
        {
          "internalType": "uint64",
          "name": "_Owner",
          "type": "uint64"
        }
      ],
      "name": "getDocument",
      "outputs": [
        {
          "components": [
            {
              "internalType": "bytes32",
              "name": "DocTitle",
              "type": "bytes32"
            },
            {
              "internalType": "uint64",
              "name": "Owner",
              "type": "uint64"
            },
            {
              "internalType": "uint64",
              "name": "LastAccessDate",
              "type": "uint64"
            },
            {
              "internalType": "bytes32",
              "name": "LastAccessedBy",
              "type": "bytes32"
            },
            {
              "internalType": "enum EnhancedBlockDocument.Action",
              "name": "action",
              "type": "uint8"
            },
            {
              "internalType": "bytes32",
              "name": "SharedUser",
              "type": "bytes32"
            },
            {
              "internalType": "uint64",
              "name": "SharedEndDate",
              "type": "uint64"
            },
            {
              "internalType": "bytes32",
              "name": "ipfsHash",
              "type": "bytes32"
            },
            {
              "internalType": "uint64",
              "name": "TimeStamp",
              "type": "uint64"
            }
          ],
          "internalType": "struct EnhancedBlockDocument.Document",
          "name": "",
          "type": "tuple"
        }
      ],
      "stateMutability": "view",
      "type": "function"
    },
    {
      "inputs": [
        {
          "internalType": "bytes32",
          "name": "_DocTitle",
          "type": "bytes32"
        },
        {
          "internalType": "uint64",
          "name": "_Owner",
          "type": "uint64"
        }
      ],
      "name": "getDocumentHistory",
      "outputs": [
        {
          "components": [
            {
              "internalType": "bytes32",
              "name": "DocTitle",
              "type": "bytes32"
            },
            {
              "internalType": "uint64",
              "name": "Owner",
              "type": "uint64"
            },
            {
              "internalType": "uint64",
              "name": "LastAccessDate",
              "type": "uint64"
            },
            {
              "internalType": "bytes32",
              "name": "LastAccessedBy",
              "type": "bytes32"
            },
            {
              "internalType": "enum EnhancedBlockDocument.Action",
              "name": "action",
              "type": "uint8"
            },
            {
              "internalType": "bytes32",
              "name": "SharedUser",
              "type": "bytes32"
            },
            {
              "internalType": "uint64",
              "name": "SharedEndDate",
              "type": "uint64"
            },
            {
              "internalType": "bytes32",
              "name": "ipfsHash",
              "type": "bytes32"
            },
            {
              "internalType": "uint64",
              "name": "TimeStamp",
              "type": "uint64"
            },
            {
              "internalType": "uint64",
              "name": "timestamp",
              "type": "uint64"
            },
            {
              "internalType": "bytes32",
              "name": "previousHash",
              "type": "bytes32"
            }
          ],
          "internalType": "struct EnhancedBlockDocument.ActionRecord[]",
          "name": "",
          "type": "tuple[]"
        }
      ],
      "stateMutability": "view",
      "type": "function"
    },
    {
      "inputs": [
        {
          "internalType": "uint64",
          "name": "_Owner",
          "type": "uint64"
        }
      ],
      "name": "getUserDocuments",
      "outputs": [
        {
          "components": [
            {
              "internalType": "bytes32",
              "name": "DocTitle",
              "type": "bytes32"
            },
            {
              "internalType": "uint64",
              "name": "Owner",
              "type": "uint64"
            },
            {
              "internalType": "uint64",
              "name": "LastAccessDate",
              "type": "uint64"
            },
            {
              "internalType": "bytes32",
              "name": "LastAccessedBy",
              "type": "bytes32"
            },
            {
              "internalType": "enum EnhancedBlockDocument.Action",
              "name": "action",
              "type": "uint8"
            },
            {
              "internalType": "bytes32",
              "name": "SharedUser",
              "type": "bytes32"
            },
            {
              "internalType": "uint64",
              "name": "SharedEndDate",
              "type": "uint64"
            },
            {
              "internalType": "bytes32",
              "name": "ipfsHash",
              "type": "bytes32"
            },
            {
              "internalType": "uint64",
              "name": "TimeStamp",
              "type": "uint64"
            }
          ],
          "internalType": "struct EnhancedBlockDocument.Document[]",
          "name": "",
          "type": "tuple[]"
        }
      ],
      "stateMutability": "view",
      "type": "function"
    },
    {
      "inputs": [
        {
          "internalType": "bytes32",
          "name": "",
          "type": "bytes32"
        }
      ],
      "name": "historyByHash",
      "outputs": [
        {
          "internalType": "bytes32",
          "name": "DocTitle",
          "type": "bytes32"
        },
        {
          "internalType": "uint64",
          "name": "Owner",
          "type": "uint64"
        },
        {
          "internalType": "uint64",
          "name": "LastAccessDate",
          "type": "uint64"
        },
        {
          "internalType": "bytes32",
          "name": "LastAccessedBy",
          "type": "bytes32"
        },
        {
          "internalType": "enum EnhancedBlockDocument.Action",
          "name": "action",
          "type": "uint8"
        },
        {
          "internalType": "bytes32",
          "name": "SharedUser",
          "type": "bytes32"
        },
        {
          "internalType": "uint64",
          "name": "SharedEndDate",
          "type": "uint64"
        },
        {
          "internalType": "bytes32",
          "name": "ipfsHash",
          "type": "bytes32"
        },
        {
          "internalType": "uint64",
          "name": "TimeStamp",
          "type": "uint64"
        },
        {
          "internalType": "uint64",
          "name": "timestamp",
          "type": "uint64"
        },
        {
          "internalType": "bytes32",
          "name": "previousHash",
          "type": "bytes32"
        }
      ],
      "stateMutability": "view",
      "type": "function"
    },
    {
      "inputs": [],
      "name": "owner",
      "outputs": [
        {
          "internalType": "address",
          "name": "",
          "type": "address"
        }
      ],
      "stateMutability": "view",
      "type": "function"
    },
    {
      "inputs": [
        {
          "internalType": "bytes32",
          "name": "_DocTitle",
          "type": "bytes32"
        },
        {
          "internalType": "uint64",
          "name": "_Owner",
          "type": "uint64"
        },
        {
          "internalType": "bytes32",
          "name": "_SharedUser",
          "type": "bytes32"
        },
        {
          "internalType": "enum EnhancedBlockDocument.Permission",
          "name": "_permission",
          "type": "uint8"
        },
        {
          "internalType": "uint64",
          "name": "_SharedEndDate",
          "type": "uint64"
        },
        {
          "internalType": "uint64",
          "name": "_LastAccessDate",
          "type": "uint64"
        }
      ],
      "name": "shareDocument",
      "outputs": [],
      "stateMutability": "nonpayable",
      "type": "function"
    },
    {
      "inputs": [
        {
          "internalType": "uint64",
          "name": "",
          "type": "uint64"
        },
        {
          "internalType": "uint256",
          "name": "",
          "type": "uint256"
        }
      ],
      "name": "userDocuments",
      "outputs": [
        {
          "internalType": "bytes32",
          "name": "",
          "type": "bytes32"
        }
      ],
      "stateMutability": "view",
      "type": "function"
    }
  ],
  "bytecode": "0x608060405234801561001057600080fd5b50336000806101000a81548173ffffffffffffffffffffffffffffffffffffffff021916908373ffffffffffffffffffffffffffffffffffffffff160217905550613027806100606000396000f3fe608060405234801561001057600080fd5b506004361061009e5760003560e01c8063673c31c311610066578063673c31c3146101615780638da5cb5b14610191578063a78efadc146101af578063ba53d96e146101df578063bc037ef11461020f5761009e565b806301d88164146100a3578063193ddd65146100bf57806329e463e7146100db57806341414c781461011557806349b5353914610131575b600080fd5b6100bd60048036038101906100b891906123df565b610249565b005b6100d960048036038101906100d49190612468565b6103c5565b005b6100f560048036038101906100f0919061237a565b61077e565b60405161010c9b9a99989796959493929190612c42565b60405180910390f35b61012f600480360381019061012a91906124cb565b610849565b005b61014b600480360381019061014691906123a3565b6109a1565b6040516101589190612d8d565b60405180910390f35b61017b6004803603810190610176919061252e565b610d20565b6040516101889190612aeb565b60405180910390f35b610199611198565b6040516101a69190612aae565b60405180910390f35b6101c960048036038101906101c49190612557565b6111bc565b6040516101d69190612b0d565b60405180910390f35b6101f960048036038101906101f491906123a3565b6111ed565b6040516102069190612ac9565b60405180910390f35b6102296004803603810190610224919061237a565b61182e565b6040516102409b9a99989796959493929190612c42565b60405180910390f35b6000801b600360008881526020019081526020016000206006015414156102a5576040517f08c379a000000000000000000000000000000000000000000000000000000000815260040161029c90612d6d565b60405180910390fd5b8467ffffffffffffffff166003600088815260200190815260200160002060010160009054906101000a900467ffffffffffffffff1667ffffffffffffffff1614610325576040517f08c379a000000000000000000000000000000000000000000000000000000000815260040161031c90612d4d565b60405180910390fd5b6000806001811115610360577f4e487b7100000000000000000000000000000000000000000000000000000000600052602160045260246000fd5b846001811115610399577f4e487b7100000000000000000000000000000000000000000000000000000000600052602160045260246000fd5b146103a55760056103a8565b60045b90506103bc8787846000801b858a896118f9565b50505050505050565b6000801b600360008681526020019081526020016000206006015414610420576040517f08c379a000000000000000000000000000000000000000000000000000000000815260040161041790612d0d565b60405180910390fd5b6000801b811415610466576040517f08c379a000000000000000000000000000000000000000000000000000000000815260040161045d90612d2d565b60405180910390fd5b6000801b600360008681526020019081526020016000206006015414156104d657600260008467ffffffffffffffff1667ffffffffffffffff1681526020019081526020016000208490806001815401808255809150506001900390600052602060002001600090919091909150555b60004290506040518061016001604052808681526020018567ffffffffffffffff1681526020018467ffffffffffffffff1681526020016000801b815260200160006005811115610550577f4e487b7100000000000000000000000000000000000000000000000000000000600052602160045260246000fd5b81526020016000801b8152602001600067ffffffffffffffff1681526020018381526020018267ffffffffffffffff1681526020018267ffffffffffffffff1681526020016000801b815250600360008781526020019081526020016000206000820151816000015560208201518160010160006101000a81548167ffffffffffffffff021916908367ffffffffffffffff16021790555060408201518160010160086101000a81548167ffffffffffffffff021916908367ffffffffffffffff1602179055506060820151816002015560808201518160030160006101000a81548160ff02191690836005811115610672577f4e487b7100000000000000000000000000000000000000000000000000000000600052602160045260246000fd5b021790555060a0820151816004015560c08201518160050160006101000a81548167ffffffffffffffff021916908367ffffffffffffffff16021790555060e082015181600601556101008201518160070160006101000a81548167ffffffffffffffff021916908367ffffffffffffffff1602179055506101208201518160070160086101000a81548167ffffffffffffffff021916908367ffffffffffffffff16021790555061014082015181600801559050507f9b986f12678243a0e7276489df5ebea06f0c0190456bd7d4c87a4308967d7b108585856000801b60008060001b6000898960405161076f99989796959493929190612b28565b60405180910390a15050505050565b60036020528060005260406000206000915090508060000154908060010160009054906101000a900467ffffffffffffffff16908060010160089054906101000a900467ffffffffffffffff16908060020154908060030160009054906101000a900460ff16908060040154908060050160009054906101000a900467ffffffffffffffff16908060060154908060070160009054906101000a900467ffffffffffffffff16908060070160089054906101000a900467ffffffffffffffff1690806008015490508b565b6000801b600360008681526020019081526020016000206006015414156108a5576040517f08c379a000000000000000000000000000000000000000000000000000000000815260040161089c90612d6d565b60405180910390fd5b8267ffffffffffffffff166003600086815260200190815260200160002060010160009054906101000a900467ffffffffffffffff1667ffffffffffffffff1614610925576040517f08c379a000000000000000000000000000000000000000000000000000000000815260040161091c90612d4d565b60405180910390fd5b60018260ff16111561096c576040517f08c379a000000000000000000000000000000000000000000000000000000000815260040161096390612ced565b60405180910390fd5b6000808360ff161461097f576003610982565b60025b905061099a8585846000801b856000801b60006118f9565b5050505050565b6109a9612186565b6000801b60036000858152602001908152602001600020600601541415610a05576040517f08c379a00000000000000000000000000000000000000000000000000000000081526004016109fc90612d6d565b60405180910390fd5b8167ffffffffffffffff166003600085815260200190815260200160002060010160009054906101000a900467ffffffffffffffff1667ffffffffffffffff1614610a85576040517f08c379a0000000000000000000000000000000000000000000000000000000008152600401610a7c90612d4d565b60405180910390fd5b60006003600085815260200190815260200160002060405180610160016040529081600082015481526020016001820160009054906101000a900467ffffffffffffffff1667ffffffffffffffff1667ffffffffffffffff1681526020016001820160089054906101000a900467ffffffffffffffff1667ffffffffffffffff1667ffffffffffffffff168152602001600282015481526020016003820160009054906101000a900460ff166005811115610b69577f4e487b7100000000000000000000000000000000000000000000000000000000600052602160045260246000fd5b6005811115610ba1577f4e487b7100000000000000000000000000000000000000000000000000000000600052602160045260246000fd5b8152602001600482015481526020016005820160009054906101000a900467ffffffffffffffff1667ffffffffffffffff1667ffffffffffffffff168152602001600682015481526020016007820160009054906101000a900467ffffffffffffffff1667ffffffffffffffff1667ffffffffffffffff1681526020016007820160089054906101000a900467ffffffffffffffff1667ffffffffffffffff1667ffffffffffffffff1681526020016008820154815250509050604051806101200160405280858152602001826020015167ffffffffffffffff168152602001826040015167ffffffffffffffff1681526020018260600151815260200182608001516005811115610cdc577f4e487b7100000000000000000000000000000000000000000000000000000000600052602160045260246000fd5b81526020018260a0015181526020018260c0015167ffffffffffffffff1681526020018260e0015181526020014267ffffffffffffffff1681525091505092915050565b60606000600260008467ffffffffffffffff1667ffffffffffffffff168152602001908152602001600020805480602002602001604051908101604052809291908181526020018280548015610d9557602002820191906000526020600020905b815481526020019060010190808311610d81575b505050505090506000815167ffffffffffffffff811115610ddf577f4e487b7100000000000000000000000000000000000000000000000000000000600052604160045260246000fd5b604051908082528060200260200182016040528015610e1857816020015b610e05612186565b815260200190600190039081610dfd5790505b50905060005b825181101561118d57600060036000858481518110610e66577f4e487b7100000000000000000000000000000000000000000000000000000000600052603260045260246000fd5b6020026020010151815260200190815260200160002060405180610160016040529081600082015481526020016001820160009054906101000a900467ffffffffffffffff1667ffffffffffffffff1667ffffffffffffffff1681526020016001820160089054906101000a900467ffffffffffffffff1667ffffffffffffffff1667ffffffffffffffff168152602001600282015481526020016003820160009054906101000a900460ff166005811115610f4b577f4e487b7100000000000000000000000000000000000000000000000000000000600052602160045260246000fd5b6005811115610f83577f4e487b7100000000000000000000000000000000000000000000000000000000600052602160045260246000fd5b8152602001600482015481526020016005820160009054906101000a900467ffffffffffffffff1667ffffffffffffffff1667ffffffffffffffff168152602001600682015481526020016007820160009054906101000a900467ffffffffffffffff1667ffffffffffffffff1667ffffffffffffffff1681526020016007820160089054906101000a900467ffffffffffffffff1667ffffffffffffffff1667ffffffffffffffff1681526020016008820154815250509050604051806101200160405280858481518110611082577f4e487b7100000000000000000000000000000000000000000000000000000000600052603260045260246000fd5b602002602001015181526020018767ffffffffffffffff168152602001826040015167ffffffffffffffff16815260200182606001518152602001826080015160058111156110fa577f4e487b7100000000000000000000000000000000000000000000000000000000600052602160045260246000fd5b81526020018260a0015181526020018260c0015167ffffffffffffffff1681526020018260e0015181526020014267ffffffffffffffff1681525083838151811061116e577f4e487b7100000000000000000000000000000000000000000000000000000000600052603260045260246000fd5b602002602001018190525050808061118590612eca565b915050610e1e565b508092505050919050565b60008054906101000a900473ffffffffffffffffffffffffffffffffffffffff1681565b600260205281600052604060002081815481106111d857600080fd5b90600052602060002001600091509150505481565b60606000801b6003600085815260200190815260200160002060060154141561124b576040517f08c379a000000000000000000000000000000000000000000000000000000000815260040161124290612d6d565b60405180910390fd5b8167ffffffffffffffff166003600085815260200190815260200160002060010160009054906101000a900467ffffffffffffffff1667ffffffffffffffff16146112cb576040517f08c379a00000000000000000000000000000000000000000000000000000000081526004016112c290612d4d565b60405180910390fd5b60008060036000868152602001908152602001600020600801549050600191505b6000801b811461132257818061130190612eca565b925050600460008281526020019081526020016000206008015490506112ec565b60008267ffffffffffffffff811115611364577f4e487b7100000000000000000000000000000000000000000000000000000000600052604160045260246000fd5b60405190808252806020026020018201604052801561139d57816020015b61138a61223e565b8152602001906001900390816113825790505b5090506003600087815260200190815260200160002060405180610160016040529081600082015481526020016001820160009054906101000a900467ffffffffffffffff1667ffffffffffffffff1667ffffffffffffffff1681526020016001820160089054906101000a900467ffffffffffffffff1667ffffffffffffffff1667ffffffffffffffff168152602001600282015481526020016003820160009054906101000a900460ff166005811115611482577f4e487b7100000000000000000000000000000000000000000000000000000000600052602160045260246000fd5b60058111156114ba577f4e487b7100000000000000000000000000000000000000000000000000000000600052602160045260246000fd5b8152602001600482015481526020016005820160009054906101000a900467ffffffffffffffff1667ffffffffffffffff1667ffffffffffffffff168152602001600682015481526020016007820160009054906101000a900467ffffffffffffffff1667ffffffffffffffff1667ffffffffffffffff1681526020016007820160089054906101000a900467ffffffffffffffff1667ffffffffffffffff1667ffffffffffffffff168152602001600882015481525050816000815181106115ac577f4e487b7100000000000000000000000000000000000000000000000000000000600052603260045260246000fd5b6020026020010181905250600360008781526020019081526020016000206008015491506000600190505b83811015611821576004600084815260200190815260200160002060405180610160016040529081600082015481526020016001820160009054906101000a900467ffffffffffffffff1667ffffffffffffffff1667ffffffffffffffff1681526020016001820160089054906101000a900467ffffffffffffffff1667ffffffffffffffff1667ffffffffffffffff168152602001600282015481526020016003820160009054906101000a900460ff1660058111156116c1577f4e487b7100000000000000000000000000000000000000000000000000000000600052602160045260246000fd5b60058111156116f9577f4e487b7100000000000000000000000000000000000000000000000000000000600052602160045260246000fd5b8152602001600482015481526020016005820160009054906101000a900467ffffffffffffffff1667ffffffffffffffff1667ffffffffffffffff168152602001600682015481526020016007820160009054906101000a900467ffffffffffffffff1667ffffffffffffffff1667ffffffffffffffff1681526020016007820160089054906101000a900467ffffffffffffffff1667ffffffffffffffff1667ffffffffffffffff1681526020016008820154815250508282815181106117ea577f4e487b7100000000000000000000000000000000000000000000000000000000600052603260045260246000fd5b602002602001018190525060046000848152602001908152602001600020600801549250808061181990612eca565b9150506115d7565b5080935050505092915050565b60046020528060005260406000206000915090508060000154908060010160009054906101000a900467ffffffffffffffff16908060010160089054906101000a900467ffffffffffffffff16908060020154908060030160009054906101000a900460ff16908060040154908060050160009054906101000a900467ffffffffffffffff16908060060154908060070160009054906101000a900467ffffffffffffffff16908060070160089054906101000a900467ffffffffffffffff1690806008015490508b565b60004290506000600360008a815260200190815260200160002060405180610160016040529081600082015481526020016001820160009054906101000a900467ffffffffffffffff1667ffffffffffffffff1667ffffffffffffffff1681526020016001820160089054906101000a900467ffffffffffffffff1667ffffffffffffffff1667ffffffffffffffff168152602001600282015481526020016003820160009054906101000a900460ff1660058111156119e2577f4e487b7100000000000000000000000000000000000000000000000000000000600052602160045260246000fd5b6005811115611a1a577f4e487b7100000000000000000000000000000000000000000000000000000000600052602160045260246000fd5b8152602001600482015481526020016005820160009054906101000a900467ffffffffffffffff1667ffffffffffffffff1667ffffffffffffffff168152602001600682015481526020016007820160009054906101000a900467ffffffffffffffff1667ffffffffffffffff1667ffffffffffffffff1681526020016007820160089054906101000a900467ffffffffffffffff1667ffffffffffffffff1667ffffffffffffffff16815260200160088201548152505090506000611adf82612113565b905081600460008381526020019081526020016000206000820151816000015560208201518160010160006101000a81548167ffffffffffffffff021916908367ffffffffffffffff16021790555060408201518160010160086101000a81548167ffffffffffffffff021916908367ffffffffffffffff1602179055506060820151816002015560808201518160030160006101000a81548160ff02191690836005811115611bb8577f4e487b7100000000000000000000000000000000000000000000000000000000600052602160045260246000fd5b021790555060a0820151816004015560c08201518160050160006101000a81548167ffffffffffffffff021916908367ffffffffffffffff16021790555060e082015181600601556101008201518160070160006101000a81548167ffffffffffffffff021916908367ffffffffffffffff1602179055506101208201518160070160086101000a81548167ffffffffffffffff021916908367ffffffffffffffff160217905550610140820151816008015590505060008260e0015190506040518061016001604052808c81526020018b67ffffffffffffffff1681526020018a67ffffffffffffffff168152602001898152602001886005811115611ce8577f4e487b7100000000000000000000000000000000000000000000000000000000600052602160045260246000fd5b81526020018781526020018667ffffffffffffffff1681526020018281526020018567ffffffffffffffff1681526020018567ffffffffffffffff16815260200183815250600360008d81526020019081526020016000206000820151816000015560208201518160010160006101000a81548167ffffffffffffffff021916908367ffffffffffffffff16021790555060408201518160010160086101000a81548167ffffffffffffffff021916908367ffffffffffffffff1602179055506060820151816002015560808201518160030160006101000a81548160ff02191690836005811115611e03577f4e487b7100000000000000000000000000000000000000000000000000000000600052602160045260246000fd5b021790555060a0820151816004015560c08201518160050160006101000a81548167ffffffffffffffff021916908367ffffffffffffffff16021790555060e082015181600601556101008201518160070160006101000a81548167ffffffffffffffff021916908367ffffffffffffffff1602179055506101208201518160070160086101000a81548167ffffffffffffffff021916908367ffffffffffffffff160217905550610140820151816008015590505060006005811115611ef3577f4e487b7100000000000000000000000000000000000000000000000000000000600052602160045260246000fd5b876005811115611f2c577f4e487b7100000000000000000000000000000000000000000000000000000000600052602160045260246000fd5b1415611f7e577f9b986f12678243a0e7276489df5ebea06f0c0190456bd7d4c87a4308967d7b108b8b8b8b8b8b8b888c604051611f7199989796959493929190612bb5565b60405180910390a1612106565b60046005811115611fb8577f4e487b7100000000000000000000000000000000000000000000000000000000600052602160045260246000fd5b876005811115611ff1577f4e487b7100000000000000000000000000000000000000000000000000000000600052602160045260246000fd5b148061206c5750600580811115612031577f4e487b7100000000000000000000000000000000000000000000000000000000600052602160045260246000fd5b87600581111561206a577f4e487b7100000000000000000000000000000000000000000000000000000000600052602160045260246000fd5b145b156120bd577fecddce562ac3051167e767c74a6408cd1dc9d890596be1643299cfb6cbc1aa448b8b8b8b8b8b8b888c6040516120b099989796959493929190612bb5565b60405180910390a1612105565b7f765b0f3fea775c44a7cd49cb4729cc48d02f6920b6b7ab39593af6d7392e85198b8b8b8b8b8b8b888c6040516120fc99989796959493929190612bb5565b60405180910390a15b5b5050505050505050505050565b6000816000015182602001518360400151846060015185608001518660a001518760c001518860e001518961010001518a61012001518b61014001516040516020016121699b9a99989796959493929190612c42565b604051602081830303815290604052805190602001209050919050565b60405180610120016040528060008019168152602001600067ffffffffffffffff168152602001600067ffffffffffffffff1681526020016000801916815260200160006005811115612202577f4e487b7100000000000000000000000000000000000000000000000000000000600052602160045260246000fd5b815260200160008019168152602001600067ffffffffffffffff16815260200160008019168152602001600067ffffffffffffffff1681525090565b60405180610160016040528060008019168152602001600067ffffffffffffffff168152602001600067ffffffffffffffff16815260200160008019168152602001600060058111156122ba577f4e487b7100000000000000000000000000000000000000000000000000000000600052602160045260246000fd5b815260200160008019168152602001600067ffffffffffffffff16815260200160008019168152602001600067ffffffffffffffff168152602001600067ffffffffffffffff168152602001600080191681525090565b60008135905061232081612f85565b92915050565b60008135905061233581612f9c565b92915050565b60008135905061234a81612fac565b92915050565b60008135905061235f81612fc3565b92915050565b60008135905061237481612fda565b92915050565b60006020828403121561238c57600080fd5b600061239a84828501612311565b91505092915050565b600080604083850312156123b657600080fd5b60006123c485828601612311565b92505060206123d585828601612350565b9150509250929050565b60008060008060008060c087890312156123f857600080fd5b600061240689828a01612311565b965050602061241789828a01612350565b955050604061242889828a01612311565b945050606061243989828a01612326565b935050608061244a89828a01612350565b92505060a061245b89828a01612350565b9150509295509295509295565b6000806000806080858703121561247e57600080fd5b600061248c87828801612311565b945050602061249d87828801612350565b93505060406124ae87828801612350565b92505060606124bf87828801612311565b91505092959194509250565b600080600080608085870312156124e157600080fd5b60006124ef87828801612311565b945050602061250087828801612350565b935050604061251187828801612365565b925050606061252287828801612350565b91505092959194509250565b60006020828403121561254057600080fd5b600061254e84828501612350565b91505092915050565b6000806040838503121561256a57600080fd5b600061257885828601612350565b92505060206125898582860161233b565b9150509250929050565b600061259f8383612841565b6101608301905092915050565b60006125b88383612922565b6101208301905092915050565b6125ce81612e2c565b82525050565b60006125df82612dc9565b6125e98185612df9565b93506125f483612da9565b8060005b8381101561262557815161260c8882612593565b975061261783612ddf565b9250506001810190506125f8565b5085935050505092915050565b600061263d82612dd4565b6126478185612e0a565b935061265283612db9565b8060005b8381101561268357815161266a88826125ac565b975061267583612dec565b925050600181019050612656565b5085935050505092915050565b61269981612e3e565b82525050565b6126a881612e3e565b82525050565b6126b781612ea6565b82525050565b6126c681612ea6565b82525050565b6126d581612eb8565b82525050565b60006126e8603083612e1b565b91507f496e76616c696420616374696f6e3a206d75737420626520302028566965772960008301527f206f7220312028446f776e6c6f616429000000000000000000000000000000006020830152604082019050919050565b600061274e601783612e1b565b91507f446f63756d656e7420616c7265616479206578697374730000000000000000006000830152602082019050919050565b600061278e601983612e1b565b91507f4950465320686173682063616e6e6f7420626520656d707479000000000000006000830152602082019050919050565b60006127ce601483612e1b565b91507f4f776e657220646f6573206e6f74206d617463680000000000000000000000006000830152602082019050919050565b600061280e601783612e1b565b91507f446f63756d656e7420646f6573206e6f742065786973740000000000000000006000830152602082019050919050565b610160820160008201516128586000850182612690565b50602082015161286b6020850182612a90565b50604082015161287e6040850182612a90565b5060608201516128916060850182612690565b5060808201516128a460808501826126ae565b5060a08201516128b760a0850182612690565b5060c08201516128ca60c0850182612a90565b5060e08201516128dd60e0850182612690565b506101008201516128f2610100850182612a90565b50610120820151612907610120850182612a90565b5061014082015161291c610140850182612690565b50505050565b610120820160008201516129396000850182612690565b50602082015161294c6020850182612a90565b50604082015161295f6040850182612a90565b5060608201516129726060850182612690565b50608082015161298560808501826126ae565b5060a082015161299860a0850182612690565b5060c08201516129ab60c0850182612a90565b5060e08201516129be60e0850182612690565b506101008201516129d3610100850182612a90565b50505050565b610120820160008201516129f06000850182612690565b506020820151612a036020850182612a90565b506040820151612a166040850182612a90565b506060820151612a296060850182612690565b506080820151612a3c60808501826126ae565b5060a0820151612a4f60a0850182612690565b5060c0820151612a6260c0850182612a90565b5060e0820151612a7560e0850182612690565b50610100820151612a8a610100850182612a90565b50505050565b612a9981612e85565b82525050565b612aa881612e85565b82525050565b6000602082019050612ac360008301846125c5565b92915050565b60006020820190508181036000830152612ae381846125d4565b905092915050565b60006020820190508181036000830152612b058184612632565b905092915050565b6000602082019050612b22600083018461269f565b92915050565b600061012082019050612b3e600083018c61269f565b612b4b602083018b612a9f565b612b58604083018a612a9f565b612b65606083018961269f565b612b7260808301886126bd565b612b7f60a083018761269f565b612b8c60c08301866126cc565b612b9960e083018561269f565b612ba7610100830184612a9f565b9a9950505050505050505050565b600061012082019050612bcb600083018c61269f565b612bd8602083018b612a9f565b612be5604083018a612a9f565b612bf2606083018961269f565b612bff60808301886126bd565b612c0c60a083018761269f565b612c1960c0830186612a9f565b612c2660e083018561269f565b612c34610100830184612a9f565b9a9950505050505050505050565b600061016082019050612c58600083018e61269f565b612c65602083018d612a9f565b612c72604083018c612a9f565b612c7f606083018b61269f565b612c8c608083018a6126bd565b612c9960a083018961269f565b612ca660c0830188612a9f565b612cb360e083018761269f565b612cc1610100830186612a9f565b612ccf610120830185612a9f565b612cdd61014083018461269f565b9c9b505050505050505050505050565b60006020820190508181036000830152612d06816126db565b9050919050565b60006020820190508181036000830152612d2681612741565b9050919050565b60006020820190508181036000830152612d4681612781565b9050919050565b60006020820190508181036000830152612d66816127c1565b9050919050565b60006020820190508181036000830152612d8681612801565b9050919050565b600061012082019050612da360008301846129d9565b92915050565b6000819050602082019050919050565b6000819050602082019050919050565b600081519050919050565b600081519050919050565b6000602082019050919050565b6000602082019050919050565b600082825260208201905092915050565b600082825260208201905092915050565b600082825260208201905092915050565b6000612e3782612e5b565b9050919050565b6000819050919050565b6000819050612e5682612f71565b919050565b600073ffffffffffffffffffffffffffffffffffffffff82169050919050565b6000819050919050565b600067ffffffffffffffff82169050919050565b600060ff82169050919050565b6000612eb182612e48565b9050919050565b6000612ec382612e85565b9050919050565b6000612ed582612e7b565b91507fffffffffffffffffffffffffffffffffffffffffffffffffffffffffffffffff821415612f0857612f07612f13565b5b600182019050919050565b7f4e487b7100000000000000000000000000000000000000000000000000000000600052601160045260246000fd5b7f4e487b7100000000000000000000000000000000000000000000000000000000600052602160045260246000fd5b60068110612f8257612f81612f42565b5b50565b612f8e81612e3e565b8114612f9957600080fd5b50565b60028110612fa957600080fd5b50565b612fb581612e7b565b8114612fc057600080fd5b50565b612fcc81612e85565b8114612fd757600080fd5b50565b612fe381612e99565b8114612fee57600080fd5b5056fea2646970667358221220fdd4d8aaea02f4097e88025ad317994237c0ee842716bce36b5941594c3b302364736f6c63430008000033",
  "linkReferences": {},
  "deployedLinkReferences": {}
}